:020000040800F2
:1000000070070020450100081D140008750C000849
:1000100019140008B50900088D2000080000000030
:10002000000000000000000000000000311A00087D
:10003000B909000800000000D9140008E51A0008FA
:100040005F0100085F0100085F010008A1180008B7
:100050005F0100085F0100085F0100085F01000800
:100060005F0100085F0100085F0100085F010008F0
:100070005F0100085F0100085F0100085F010008E0
:100080005F0100085F0100085F0100085F010008D0
:100090005F0100085F0100085F0100085F010008C0
:1000A0005F0100085F0100085F0100085F010008B0
:1000B0005F0100085F0100082D1C00085F010008B7
:1000C0005F0100085F0100085F0100085F01000890
:1000D0005F0100085F010008791D0008111E00087B
:1000E0005F0100085F0100085F0100085F01000870
:1000F0005F0100085F0100085F0100085F01000860
:100100005F0100085F0100085F0100085F0100084F
:100110005F0100085F0100085F0100085F0100083F
:100120005F0100085F0100085F0100085F0100082F
:10013000DFF80CD000F0C4FA004800477D29000821
:10014000700700200648804706480047FEE7FEE7A4
:10015000FEE7FEE7FEE7FEE7FEE7FEE7FEE7FEE777
:10016000CD1B0008310100082DE9FE4F81EA030490
:1001700004F0004421F0004100944FF0000B23F004
:10018000004350EA01045ED052EA03045BD0C3F39B
:100190000A54C1F30A552C44A4F2F3340194A0FB91
:1001A0000254C1F3130141F48011C3F3130343F468
:1001B000801301FB024400FB034E840A970A44EAC1
:1001C000815447EA8357A4FB076802958D0A05FB13
:1001D00007854FEA932C04FB0C542705029D4FEA38
:1001E000065847EA1637B5EB08056EEB070C870E85
:1001F000920E47EA811742EA8312A7FB0201B6EB8F
:100200000B0164EB00042B0D43EA0C335E1844EB46
:100210001C50DA465146E7FB0201C5F313044FEACE
:100220000B3343EA14534FEA0432019C43EA0603BA
:10023000A4F10C040294009CCDE900B400F01AF97A
:1002400003B0BDE8F08F00200146F9E72DE9F04D3D
:1002500081EA030404F0004B21F0004514464FF0FE
:10026000000A23F0004150EA050220D054EA0102BE
:100270001DD0C5F30A570246C5F31303C1F313009B
:10028000C1F30A5640F4801543F48013A7EB060827
:10029000101BD64608F2FD3873EB050002D308F1B7
:1002A000010801E092185B41B8F1000F03DA002069
:1002B0000146BDE8F08D00204FF4801106468446CB
:1002C0000EE0171B73EB050705D3121B63EB050349
:1002D00006434CEA010C49084FEA300092185B4192
:1002E00050EA0107EDD152EA030012D082EA04007D
:1002F00083EA0501084305D0101BAB4106D2012259
:10030000002306E000224FF0004302E06FF00102FC
:1003100053101AEB06004CEB085110EB0A0041EBAE
:100320000B01BDE8F04D00F096B89623002211466F
:1003300000F063B800F0004230F000400AD0C10D78
:1003400001F56071C0F3160042EA0151C20840078E
:100350001143704700200146704730B50B460146F7
:1003600000202022012409E021FA02F59D4205D354
:1003700003FA02F5491B04FA02F52844151EA2F1FE
:100380000102F1DC30BD2DE9F05F05460020924608
:100390009B4688460646814640241BE02846414647
:1003A0004746224600F0ADF953465A46C01A9141DD
:1003B00010D311461846224600F094F92D1A67EB27
:1003C00001084F4622460120002100F08BF917EB6F
:1003D00000094E41201EA4F10104DFDC48463146ED
:1003E0002A464346BDE8F09F0029A8BF7047401C3D
:1003F000490008BF20F00100704710B4B0FA80FC3B
:1004000000FA0CF050EA010404BF10BC704749B177
:10041000CCF1200421FA04F411FA0CF118BF0121E7
:1004200021430843A3EB0C01CB1D4FEA00614FEAC7
:10043000102042BF002010BC704700EBC350104496
:100440000029A4BF10BC7047401C490008BF20F021
:10045000010010BC704710B5141E73F1000408DAD7
:10046000401C41F1000192185B411A4301D120F078
:10047000010010BD2DE9F04D92469B4611B1B1FA35
:1004800081F202E0B0FA80F22032904600F02AF9C0
:1004900004460F4640EA0A0041EA0B0153465A4619
:1004A000084313D0114653EA010019D0C8F14002A5
:1004B000504600F026F905460E465046594642463B
:1004C00000F010F9084305D0012004E02046394629
:1004D000BDE8F08D0020054346EAE0762C43374323
:1004E0000A986305E40AA0EB08000022FD0A44EA2A
:1004F00047540A3002D500200146E9E701051019EA
:100500006941DDE9084500196941BDE8F04DA2E700
:100510002DE9FE4F804681EA0300C00F0C46009093
:1005200021F0004123F00045B8EB0200A94105D2BB
:100530004046214690461C460B46024623F00040AA
:10054000104347D0270DC7F30A00C3F30A510290A6
:10055000401A019040286BDAC3F3130040F4801B6B
:100560000098924620B10023D2EB030A63EB0B0BF9
:1005700001985946C0F14002504600F0B3F80646D3
:100580000D4650465946019A00F0CBF810EB080092
:100590006141002487EA115284EAE7731A4340D08C
:1005A000009A62B3019A012A4FEA075215DC001B38
:1005B00061EB02014FF0004202EA0752CDE900422E
:1005C000001C41F5801132462B46FFF753FF03B064
:1005D000BDE8F08F40462146F9E7001B61EB0201C0
:1005E000001C41F5801300185B412018A2F500178C
:1005F00047EB030140EAD570B6196D4111E06D0873
:100600004FEA360645EAC0754FEA0752001B61EB18
:100610000201001C41F5801149084FEA3000001921
:10062000514132462B4603B0BDE8F04FFFF713BFF0
:100630000098012240000023D0EB020263EBE0733C
:10064000009821464FEAE074B8EB000061EB04012A
:10065000E9E783F000435BE781F0004158E7C1F32D
:100660000A52C1F3130140F2FF3341F480119A4260
:1006700002DA00200146704740F233439A42A2F268
:10068000334202DC524200F03CB800F02BB80000CC
:1006900030B5041E71F1000404DB4FF00044404209
:1006A00064EB0101141E73F1000405DB1C464FF0DE
:1006B0000043524263EB0403994208BF904230BDAD
:1006C000064C074D06E0E06840F0010394E807009F
:1006D00098471034AC42F6D3FFF72EFDD42B000818
:1006E000F42B0008202A04DB203A00FA02F1002053
:1006F00070479140C2F1200320FA03F31943904060
:100700007047202A04DB203A21FA02F000217047CA
:1007100021FA02F3D040C2F1200291400843194669
:100720007047202A06DBCB17203A41FA02F043EA51
:10073000E07306E041FA02F3D040C2F1200291409A
:1007400008431946704721B1826842F00102826075
:1007500003E0826822F001028260704721B1826862
:1007600042F48072826003E0826822F480728260C8
:100770007047014600208A6802F004020AB1012095
:1007800000E0002070470146C86C80B27047024606
:10079000002013680B400BB1012000E000207047DF
:1007A000014600208A6802F008020AB1012000E038
:1007B0000020704730B502460020002350680F4CDF
:1007C00020400D790C6844EA05242043506090686D
:1007D0000B4C2040D1E902542C434D7944EA4504A6
:1007E00020439060D06A20F470000C7C641EE4B258
:1007F000234340EA0350D06230BD0000FFFEF0FF0B
:10080000FDF7F1FFF0B504460D4600200021092D4B
:1008100011DDE068A5F10A0606EB4607072606FA91
:1008200007F18843A5F10A0606EB460603FA06F12E
:100830000843E0600CE0206905EB4507072606FA4F
:1008400007F1884305EB450603FA06F108432061EA
:10085000072A0FDA606B561E06EB86071F2606FA7C
:1008600007F18843561E06EB860605FA06F1084393
:10087000606322E00D2A0FDA206BD61F06EB860795
:100880001F2606FA07F18843D61F06EB860605FAEF
:1008900006F10843206310E0E06AA2F10D0606EBC2
:1008A00086071F2606FA07F18843A2F10D0606EB1C
:1008B000860605FA06F10843E062F0BD816841F062
:1008C00008018160704721B1826842F4A002826011
:1008D00003E0826822F4A00282607047816841F0E0
:1008E000040181607047000000B585B0012104203B
:1008F00000F014FE0121480200F010FE00200090DC
:1009000001208DF804008DF805004FF4602002905E
:100910000020039001208DF8100069461248FFF76F
:1009200049FF052301220D210F48FFF76BFF01212D
:100930000D48FFF713FF01210B48FFF704FF0A489A
:10094000FFF7BCFF00BF0848FFF72AFF0028FAD1D5
:100950000548FFF7C3FF00BF0348FFF70AFF002861
:10096000FAD105B000BD00000024014010B50120FF
:1009700000F0E4FD002000F0E1FD10BD08B50146E7
:1009800000200090034800900098084400900098D0
:10099000008808BD006C004008B500220092044A9F
:1009A0000092009A02440092009A116008BD000073
:1009B000006C004000BFFEE77047000001B505492C
:1009C0000098086000E000BF024800680028FAD1E3
:1009D00008BD0000040000207FB50024002513A1FD
:1009E00003C9CDE90201082202A9002000F042FA61
:1009F0000520FFF7E3FF08226946002000F08CF98C
:100A000000BF09E01DF8040002A9095D884201D178
:100A1000681CC5B2601CC4B2082CF3DB082D02D1DF
:100A2000012004B070BD0020FBE7000000010203BC
:100A30000405070810B500F01FF910BD08B5012125
:100A4000082000F06BFD4FF40070ADF8000010209E
:100A50008DF8030003208DF8020069460A4800F073
:100A600017F80121042000F059FDF220ADF8000034
:100A700010208DF8030003208DF80200694603481A
:100A800000F006F808BD0000000C0140000801401D
:100A90002DE9F04102460025002600200023002415
:100AA000002791F803C00CF00F0591F803C00CF07B
:100AB000100CBCF1000F03D091F802C04CEA050500
:100AC00091F800C0BCF1000F31D0146800202BE079
:100AD0004FF0010C0CFA00F3B1F800C00CEA030669
:100AE0009E4220D183004FF00F0C0CFA03F7BC4359
:100AF00005FA03FC4CEA040491F803C0BCF1280F8A
:100B000006D14FF0010C0CFA00FCC2F814C00AE048
:100B100091F803C0BCF1480F05D14FF0010C0CFA5D
:100B200000FCC2F810C0401C0828D1D31460B1F8F2
:100B300000C0BCF1FF0F34DD546800202EE000F14E
:100B4000080C4FF0010808FA0CF3B1F800C00CEAE9
:100B500003069E4221D183004FF00F0C0CFA03F7DD
:100B6000BC4305FA03FC4CEA040491F803C0BCF151
:100B7000280F05D100F1080C08FA0CF8C2F814800F
:100B800091F803C0BCF1480F07D100F1080C4FF0F9
:100B9000010808FA0CF8C2F81080401C0828CED3CF
:100BA0005460BDE8F0810000F0B50A46002300243F
:100BB0000021002500F00046B6F1004F02D11D4E85
:100BC000F16901E01B4E7168C0F3034583B200F484
:100BD0004016B6F5401F08D121F07061154E7668B9
:100BE00026F07066134F7E6012E000F48016B6F5B2
:100BF000801F06D1032606FA05F4A14341F0706177
:100C000006E0460D360103FA06F6B14341F0706185
:100C100022B1460D360103FA06F6314300F00046D4
:100C2000B6F1004F02D1034EF16101E0014E716057
:100C3000F0BD000000000140416170470161704754
:100C400010B504460723012221460948FFF7DAFDC3
:100C500001210748FFF737FE00BF02210448FFF7D4
:100C600096FD0028F9D00248FFF78DFD10BD000069
:100C70000024014000BFFEE700B585B001212348F4
:100C800000F02CFC0121082000F048FC012102208A
:100C9000FFF78AFF0121480500F030FC00214FF4E6
:100CA000001000F02BFC4FF44070ADF81000032052
:100CB0008DF812001C208DF8130004A91448FFF7CA
:100CC000E7FE144800F05AF90020ADF804004BF696
:100CD000FF70ADF806003020ADF808004FF48060DA
:100CE000ADF80A000001ADF80C004CF25030009055
:100CF0000121084800F00EF96946064800F090F915
:100D00000121044800F02DF905B000BD01002000CC
:100D1000000C0140005400402DE9F04106460F460A
:100D200015460DB9BDE8F0814FF4A04400F094FAE7
:100D300000BF4FF400314C4800F054F918B12000C6
:100D4000A4F10104F5D10121474800F0E3F80121A5
:100D5000454800F02FF94FF4A04400BF43494248F2
:100D600000F0E4F818B92000A4F10104F6D1002243
:100D7000A0213D4800F065FA4FF4A04400BF3C4973
:100D8000394800F0D3F818B92000A4F10104F6D1D5
:100D9000310A354800F05EFA4FF4A04400BF3449F0
:100DA000891C314800F0C2F818B92000A4F10104F0
:100DB000F5D1F1B22C4800F04DFA4FF4A04400BF39
:100DC0002B49891C284800F0B1F818B92000A4F17B
:100DD0000104F5D10121244800F0ECF84FF4A044BF
:100DE00000BF2249204800F0A1F818B92000A4F162
:100DF0000104F6D10122A0211B4800F022FA4FF491
:100E0000A04400BF1949491C174800F08FF818B9D1
:100E10002000A4F10104F5D11DE0012D07D100212E
:100E2000114800F077F801210F4800F0CFF84FF497
:100E3000A04400BF0D493F310B4800F077F818B9C6
:100E40002000A4F10104F5D1074800F0F6F938704C
:100E50007F1C681E85B2002DDFD10121024800F001
:100E600059F800BF5EE70000005400400100030095
:100E7000820007002DE9F04105460F46144628463A
:100E8000E91705EB91618911A5EB8111CEB200F054
:100E9000E3F9DEB1C6F14000C6B2B4420ADB324625
:100EA0003946284600F032F9A01B84B2A81985B251
:100EB000374409E0E2B23946284600F027F910B974
:100EC0000020BDE8F081002400F0C6F91EE0402CAF
:100ED00011DB40223946284600F018F908B90020F5
:100EE000EFE7A4F1400084B205F1400085B240373D
:100EF00000F0B2F90AE0E2B23946284600F006F9FD
:100F000008B90020DDE7002400F0A6F9002CDED1AE
:100F10000120D6E721B1028842F48062028004E019
:100F200002884FF6FF331A400280704770B50246C0
:100F30000024002500230020958A138B1B0445EA1A
:100F4000030626F07F4404EA01068E4201D1012007
:100F500000E0002070BD002221F07F42D343838255
:100F6000704721B1028842F00102028004E0028849
:100F70004FF6FE731A4002807047000010B5044619
:100F80000B48844209D10121480500F0B7FA00213D
:100F90004FF4001000F0B2FA08E00121880500F0DB
:100FA000ADFA00214FF4800000F0A8FA10BD000057
:100FB0000054004021B1028842F48072028004E0B3
:100FC00002884FF6FF631A400280704721B1028801
:100FD00042F40072028004E002884FF6FF531A4088
:100FE000028070470CB50246002000230193009355
:100FF00000920B0F019321F07F41019B1BB1009BDD
:101000001433009303E0090C009B18330093009BFA
:101010001B680B400BB1012000E000200CBD00005C
:101020002DE9F04385B004460D460026B14604275D
:10103000DFF8CC80A6884FF6C0700640684600F006
:1010400083FADDF808802F48B8FBF0F01FFA80F92A
:1010500046EA0906A68020884FF6FE7108402080E7
:1010600000262949286888420CD828684000B8FB27
:10107000F0F087B2042F00DA04273E4309F10100A3
:10108000208427E0E8884BF6FF71884206D1286863
:1010900000EB4000B8FBF0F087B209E0286800EBF5
:1010A000C00101EB0010B8FBF0F087B247F48047B5
:1010B000C7F30B0008B947F0010747F400400643A7
:1010C0004FF4967009FB00F04FF47A7190FBF1F049
:1010D000401C2084A683208840F0010020802688C0
:1010E0004FF6F5300640A8886989084306432680F4
:1010F000A88929890843208105B0BDE8F083000054
:1011000000127A0040420F00A08601002DE9F04154
:1011100005460E4617464FF4A04400BF4FF4003179
:101120003D48FFF75FFF18B12000A4F10104F5D19D
:1011300014B90020BDE8F08101213748FFF73AFFDC
:101140004FF4A04400BF35493348FFF7EFFE18B90C
:101150002000A4F10104F6D10CB90020EAE7002236
:10116000A0212D4800F06DF84FF4A04400BF2C4999
:101170002948FFF7DBFE18B92000A4F10104F6D1DD
:101180000CB90020D6E7290A234800F063F84FF491
:10119000A04400BF2249891C1F48FFF7C7FE18B9A9
:1011A0002000A4F10104F5D10CB90020C2E7E9B296
:1011B000194800F04FF84FF4A04400BF1849891CAB
:1011C0001548FFF7B3FE18B92000A4F10104F5D1CA
:1011D0000CB90020AEE714E031780F4800F03AF87F
:1011E000761C4FF4A04400BF0D49891C0A48FFF744
:1011F0009DFE18B92000A4F10104F5D10CB900201E
:1012000098E73800A7F10101CFB2E5D101210248EA
:10121000FFF7DCFE01208DE70054004001000300D1
:101220008200070008B50246002000900092009856
:10123000084400900098008808BD0146088AC0B2A2
:10124000704712B141F0010102E04FF6FE73194000
:10125000018270470182704770B5002500244FF469
:10126000483400BF01211348FFF7A4FE14211148A0
:10127000FFF7D8FF05460022A0210E48FFF7E1FF47
:101280000D48844201D1FFF7F7FC14210948FFF70C
:10129000C9FF00F0020018B92000A4F10104E1D157
:1012A00006490448FFF757FE01210248FFF78EFE6A
:1012B00070BD000000540040181C03000004001022
:1012C00010B5104800684FF47A71B0FBF1F4B4F136
:1012D000807F00D311E024F07F40401E4FF0E021DA
:1012E00048610F214FF0FF3000F0DCF800204FF094
:1012F000E02188610720086100BF0021481E00F03E
:10130000D1F810BD400000203EB500244FF4C0606D
:1013100000F0BEF803208DF8080001208DF80900C8
:1013200000208DF80A0001208DF80B0002A800F0C3
:1013300077F80420FFF722FB45F25001884246D09F
:1013400001214FF0C05000F0C9F8012000F0BEF8B4
:10135000FFF70CFB012000F081F908E00A20FFF7FD
:101360002DFB601CC4B2FA2C01DB00203EBD4120E5
:1013700000F056F90028F1D04FF4807000F08EF99B
:10138000012000F085F900F037FB00F03FFB012160
:10139000084600F09DFA00F02FFB00F08FF947F6A9
:1013A000FF7000F019FB00F027FB002000900C23D9
:1013B00011220721019040F2E17000F099FA00F04B
:1013C00087F945F250010420FFF7E6FA07E000F044
:1013D0001DFB0121084600F07BFA00F00DFB00F038
:1013E00081F90120C2E70146CA1701EB92729210FF
:1013F000A1EB82022AB9642291FBF2F302FB1312E1
:1014000032B94FF4C87291FBF2F302FB13120AB91E
:10141000012070470020FCE700BFFEE77047000096
:1014200070B5002100230F22C47804B3154C246842
:1014300004F4E064C4F5E064210AC1F10403CA4085
:10144000447804FA03F184781440214309010E4CD6
:101450000678A155047804F01F050124AC400578F6
:101460006D11AD0005F1E025C5F8004109E00478F3
:1014700004F01F050124AC40044D0678761145F8B0
:10148000264070BD0CED00E000E400E080E100E0EB
:1014900002490143024A1160704700000000FA054A
:1014A0000CED00E010B5002807DA0A07140E054A13
:1014B00000F00F031B1FD45403E00A07130E024A67
:1014C000135410BD18ED00E000E400E0014908628B
:1014D0007047000000000E427047000029B1064A24
:1014E000D2690243044BDA6104E0034AD2698243C1
:1014F000014BDA61704700000010024029B1064A32
:1015000012690243044B1A6104E0034A12698243E0
:10151000014B1A61704700000010024029B1064AD1
:1015200092690243044B9A6104E0034A9269824340
:10153000014B9A61704700000010024001490860A9
:10154000704700004004424230B5002100220024D0
:101550000023304D6D6805F00C0121B1042906D03F
:10156000082928D107E04FF4E105056027E04FF492
:10157000E105056023E0274D6D6805F47012254DE7
:101580006D6805F48034022505EB924224B94FF4CE
:101590006115554305600DE01E4D6D6805F400357D
:1015A00025B14FF461155543056003E04FF4E105A3
:1015B0005543056003E04FF4E105056000BF00BF3F
:1015C000144D6D6805F0F0010909134D6B5C056859
:1015D000DD4045600F4D6D6805F4E061090A0E4D70
:1015E0006B5C4568DD4085600A4D6D6805F46051AF
:1015F000C90A094D6B5C4568DD40C560054D6D68E5
:1016000005F44041890B054D6B5CC568B5FBF3F5EE
:10161000056130BD001002402C0000203C0000207D
:1016200010B501460022002300204A11012A02D1F0
:10163000094C236806E0022A02D1074C236A01E024
:10164000054C636A01F01F02012494401C400CB158
:10165000012000E0002010BD0010024000210B4AD4
:1016600011700A4A203A82F82010012802D004287A
:1016700008D103E00121054A117004E00521034A65
:10168000117000E000BF00BF704700002010024052
:1016900001490860704700003C0442420249096A5F
:1016A0000143014A11627047001002400249098853
:1016B0008143014A11807047042800400348008894
:1016C00040F01000014908807047000004280040E5
:1016D000034800884FF6EF710840014908807047C1
:1016E0000428004070B50026002400253B480688E9
:1016F0003604001D008806443948B6FBF0F439482A
:101700000088A0423CD037490C8040F2B27510E00E
:101710002846FFF768FE40B1B4F5B67F02D9A4F5BC
:10172000B77404E0681C85B206E0A4F26D14681C6E
:1017300085B2B4F5B77FEBD200BF2B4805800025FA
:1017400016E029490888FFF74EFE30B1012D04D17B
:101750001D2C01D31D3C09E00CE02448405DA04253
:1017600003D82248405D241A00E003E0681C85B2DB
:101770001C2CE6D200BF681C1B498870601CC87016
:101780001748B6FBF0F100FB11644FF46160B4FB45
:10179000F0F0154948714FF46160B4FBF0F100FBC3
:1017A00011403C21B0FBF1F00F4988714FF46160AA
:1017B000B4FBF0F100FB11403C21B0FBF1F201FB66
:1017C00012000949C8710B46DA789978188800F038
:1017D00021F805490871012070BD0000182800405B
:1017E000805101002A00002022000020C82B0008A0
:1017F00001460020064A12880A40D0B2044A121F4D
:1018000012880A4012B108B1012000E000207047A0
:10181000042800402DE9F04305460B46164600BF5C
:1018200000BF00BF012B01D0022B04D1681E85B27E
:1018300003F10C00C3B2642095FBF0F101EBC10091
:1018400000EB0110A5EB800203F1010C0CEB8C08FE
:1018500008EBCC0C4FF005089CFBF8FC4FEAE17854
:1018600001EB98784FEAA8084FF0020909FB1188AC
:101870004FEAE27902EB997902EBA909C844C44422
:10188000B444ACF1010400E0E41D002CFCDB0720B3
:1018900094FBF0F700FB1744E0B2BDE8F0830000D2
:1018A00010B50120FFF7A4FF10B10120074908700F
:1018B0000220FFF79DFF10B10220FFF7F7FE052081
:1018C000FFF7F4FE00F098F810BD000020000020A3
:1018D00029B1064A12880243044B1A8004E0034AE5
:1018E00012888243014B1A80704700000028004094
:1018F0002DE9F05F06460F4690469946DDE90AABB2
:101900000025002440F2B270864203DB40F633002B
:10191000864202DD0020BDE8F09F40F2B2750AE089
:101920002846FFF760FD10B12048044401E020483C
:101930000444681C85B2B542F2DB781EC7B20025AC
:1019400010E01C48405D40F2A321484304EBC01462
:101950003046FFF748FD18B1012D01D11648044467
:10196000681C85B2BD42ECDBA8F1010040F2A32166
:10197000484304EBC014C9EB4910C0EB092004EB49
:101980000014CAEB0A1004EB80045C4401214FF000
:10199000C050FFF7A3FD0120FFF798FD204600F09F
:1019A0000DF800F029F80120B5E700000085E201FC
:1019B0008033E101C82B00088051010000B50246C8
:1019C000FFF77CFE100C03490880091D0A80FFF711
:1019D0007FFE00BD1828004000B50246FFF76EFEEE
:1019E000C2F3034003490880091D0A80FFF770FE17
:1019F00000BD00000828004000BF0348008800F038
:101A000020000028F9D070470428004007480088CB
:101A10004FF6F77108400549088000BF0348008869
:101A200000F008000028F9D07047000004280040AA
:101A3000704710B500F002F810BD00000CB5002092
:101A4000019000902548006840F4803023490860E8
:101A500000BF2248006800F4003000900198401C4C
:101A60000190009818B90198B0F5A06FF1D11B480A
:101A7000006800F4003010B10120009001E0002067
:101A800000900098012828D11548006840F0100007
:101A9000134908600846006820F003000860084603
:101AA000006808600D4840680C4948600846406876
:101AB00048600846406848600846406820F00300D7
:101AC00048600846406840F00100486000BF034895
:101AD000406800F00C000428F9D10CBD0010024051
:101AE0000020024010B52D48006820B12B48006846
:101AF000401E2A4908602A480068401C284908609E
:101B00000846006840F29E71884204D18021254831
:101B1000FFF792F80BE022480068B0F5FA6F06D1A3
:101B200000201F49086080211E48FFF787F81E48E3
:101B3000007828B11C480078401E1B49087008E056
:101B40001A48007828B11A48007810B901201849BD
:101B500008701848007828B116480078401E1549CA
:101B6000087008E01448007828B11448007810B9CB
:101B70000120124908701248007828B110480078F6
:101B8000401E0F49087008E00E48007828B10E4842
:101B9000007810B901200C49087010BD0400002025
:101BA000000000200008014008000020090000207B
:101BB0000E0000200A0000200B0000200F00002073
:101BC0000C0000200D0000201000002010B513486C
:101BD000006840F00100114908600846406810495B
:101BE00008400E494860084600680E4908400B4905
:101BF00008600846006820F48020086008464068B5
:101C000020F4FE0048604FF41F008860FFF711FFCA
:101C10004FF000600449086010BD00000010024051
:101C20000000FFF8FFFFF6FE08ED00E010B501240C
:101C30000121194800F03BF868B31848007888B9CA
:101C4000174800882044164908801649088800EB88
:101C5000D071C4EB6101124A1288914202DC01206A
:101C60000E4908700D48007801280BD10C480088F7
:101C7000001B0B49088008460088052802DC00206C
:101C80000649087006480088034940310880012150
:101C9000014800F009F810BD000800401E000020B7
:101CA0001C00002012000020CA430282704730B599
:101CB0000246002000230024158A05EA01039589C5
:101CC00005EA010413B10CB1012000E0002030BD91
:101CD00010B586B0044627208DF8000001208DF84D
:101CE000010003208DF8020001208DF803006846F2
:101CF000FFF796FB01210920FFF710FC0121880462
:101D0000FFF7ECFB4FF48060ADF8040018208DF86D
:101D1000070003208DF8060001A91548FEF7B8FE5C
:101D20004FF40060ADF8040004208DF8070001A90D
:101D30000F48FEF7ADFE02940020ADF80C00ADF8A0
:101D40000E00ADF81000ADF814000C20ADF8120034
:101D500002A9084800F010F9012240F22551054877
:101D600000F0E4F80121034800F09DF806B010BD32
:101D7000000C01400048004070B5184C40F225515D
:101D8000174800F0A9F838B3154800F076F9C5B245
:101D900040F22551124800F077F812480078D8B97F
:101DA00020792178401AC0B210B10F48007898B15C
:101DB00003200D490870D4E90001401AFF2806D815
:101DC000217804F1080045542068401C20602078E8
:101DD0002179401A0549087070BD0000600100209B
:101DE000004400400F0000200A0000200B000020EB
:101DF0000448002141600160034A1170034A1170D8
:101E00007047000068020020100000200D00002034
:101E100070B5184C40F22551174800F05DF838B302
:101E2000154800F02AF9C5B240F22551124800F0D9
:101E30002BF812480078D8B920792178401AC0B21E
:101E400010B10F48007898B103200D490870D4E90B
:101E50000001401AFF2806D8217804F108004554F3
:101E60002068401C206020782179401A05490870BC
:101E700070BD0000680200200048004010000020F3
:101E80000C0000200D00002010B50022002340F6B9
:101E90006A14A14200D100BF0A1201249440A3B2E7
:101EA000DC43048010BD21B1828942F4005282815A
:101EB00004E082894DF6FF731A4082817047024622
:101EC0000020B1F5007F00D100BF13880B400BB19B
:101ED000012000E00020704770B502460024002376
:101EE0000025002040F66A16B14200D100BFC1F3C0
:101EF000421501F01F03012606FA03F3012D02D15A
:101F00009689334006E0022D02D1168A334001E063
:101F1000968A33400C12012606FA04F416883440DF
:101F200013B10CB1012000E0002070BDF0B50346F4
:101F3000002400260025002040F66A17B94200D18F
:101F400000BF1846C1F3421401F01F06012707FA2B
:101F500006F5012C01D10C3004E0022C01D1103027
:101F600000E014301AB107682F43076002E00768E9
:101F7000AF430760F0BD00002DE9F04786B005468D
:101F80000E460024A24600BFA1460027B08900B13A
:101F900000BF2F462C8A4CF6FF700440F0880443A3
:101FA0002C82AC894EF6F3100440B0883189084386
:101FB000718908430443AC81AC8A4FF6FF4004406A
:101FC000B0890443AC8201A8FFF7BEFA1F488742DC
:101FD00002D1DDF810A001E0DDF80CA0A88900F422
:101FE000004040B10AEBCA0000EB0A10316849001A
:101FF000B0FBF1F807E00AEBCA0000EB0A10316809
:102000008900B0FBF1F86420B8FBF0F0040120096E
:10201000642101FB1089A88900F4004040B13220FE
:1020200000EBC900B0FBF1F000F00700044308E04A
:10203000322000EB09106421B0FBF1F000F00F003A
:1020400004432C8106B0BDE8F08700000038014051
:1020500070B504460D4600262946204600F012F8C9
:1020600000BF80212046FFF72AFF28B93046711CA7
:102070008EB2B0F5A02FF4DB70BD01468888C0F3A6
:1020800008007047C1F308028280704700BFFEE776
:102090000FB4054B10B503A9044A029800F0CAF822
:1020A00010BC5DF814FB00006529000854000020F6
:1020B00002E008C8121F08C1002AFAD17047704711
:1020C000002001E001C1121F002AFBD1704700006F
:1020D0002DE9FF5FDDE90220010DDDF838B0024394
:1020E00018D044F61050A1F2FF3141430D140F985F
:1020F000012820D0A5EB0B00401C5FEA000A4FF03E
:102100000004474EDFF81C91A046504616D5CAF190
:10211000000728E00F98012443A2012808D00021DD
:1021200000980F9BC0E90021C0E90243BDE8FF9F72
:102130006FEA0B01F4E7CBF10000DEE7074612E09F
:10214000F80707D02246334640464946FEF70CF8CA
:10215000804689462246334610461946FEF704F863
:1021600004460E467F10002FEAD1DDE90201BAF1E4
:10217000000F42464B4602DAFDF7F6FF01E0FEF79C
:1021800065F804460E460022284BFEF781FA03D874
:102190004FF0FF30014607E00022254B2046314634
:1021A000FEF7B6F9FEF75BFA102409E0002C0ADB13
:1021B0000A220023FEF7E7F8019B30321A55641E0D
:1021C00050EA0102F2D1641C019AC4F111031444D3
:1021D0000F9A012A03D0012208430DD10AE00843D7
:1021E00004D000204FF0110B0F9080E7A3EB0B05FC
:1021F0006D1E0DE05B4504DD4FF0000205F10105A9
:1022000004E003DA4FF00002A5F10105002AECD04A
:1022100000980F99C0E90231C0E9004586E7000047
:10222000000024400000F03F300000000000F043B8
:102230000000E03F2DE9FF4F95B09B4689460646DA
:1022400000250FE2252877D100242746F84A0121EE
:10225000059400E0044316F8013F203B01FA03F027
:102260001042F7D130782A2811D06FF02F03307840
:10227000A0F13002092A16D8059A44F0020402EBB4
:10228000820203EB42021044761C0590EFE759F8F6
:10229000042B0592002A03DA504244F400540590BE
:1022A00044F00204761C30782E2816D116F8010F5F
:1022B00044F004042A280DD06FF02F023078A0F1EA
:1022C0003003092B09D807EB870302EB4303C71838
:1022D000761CF3E759F8047B761C30786C280FD015
:1022E00006DC4C2817D068280DD06A2814D104E0E9
:1022F000742810D07A280FD10DE044F400140AE0BD
:1023000044F4801401E044F440147278824202D113
:1023100004F58014761C761C307866280BD013DC0C
:10232000582877D009DC002875D04528F6D04628F3
:10233000F4D047281AD19DE118E0632835D06428ED
:1023400079D0652812D195E1702873D008DC672810
:10235000F1D069286FD06E280DD06F2806D1B5E076
:1023600073282CD0752875D0782874D05A461799C0
:1023700090476D1C75E1C4F30250022809D0032870
:102380000DD0D9F8001004280DD00D6009F1040912
:1023900067E1D9F80010EA17C1E90052F6E7D9F869
:1023A00000100D80F2E70D70F0E719F8041B8DF8AE
:1023B000001000208DF80100EA46012003E059F8E2
:1023C00004AB4FF0FF3061074FF0000102D40DE085
:1023D00008F101018846B9420FDA8045F8DB1AF8A6
:1023E00008100029F4D108E008F101018846814273
:1023F000FADB1AF808100029F6D105985B46A0EB25
:10240000080721463846179A00F094FA284400EB52
:10241000080507E04DE029E10DE01AF8010B5A46E6
:1024200017999047B8F10108F7D25B462146384624
:10243000179A13E142E00A220092C4F302524FF0CD
:10244000000A022A08D059F804CB032A4FEAEC719B
:102450000AD00DE029E02AE009F1070121F0070286
:10246000F2E802C1914609E00FFA8CFC4FEAEC71E8
:10247000042A03D14FFA8CFC4FEAEC71002907DAE9
:102480000A460021DCF1000C61EB02012D2202E082
:10249000220504D52B228DF80420012203E0E20757
:1024A00001D02022F7E7904659E00A2102E01022ED
:1024B0000DE010214FF0000A00910BE010224FF0C8
:1024C000000A44F004040827009203E008224FF0B9
:1024D000000A0092C4F30252022A05D059F804CB34
:1024E0000021032A08D009E009F1070121F00702C1
:1024F000F2E802C1914605E01FFA8CFC042A01D1E2
:102500000CF0FF0C4FF00008220728D5702806D0E9
:10251000009B83F0100353EA0A0305D00EE040222B
:102520008DF80420012208E05CEA010206D0302286
:102530008DF804208DF8050002229046009B83F060
:10254000080353EA0A030AD15CEA010201D16207D7
:1025500005D530228DF804204FF001087F1E582841
:1025600004D034A003900EA802900DE036A0F9E745
:1025700053466046009AFDF706FF84460398825C46
:102580000298401E029002705CEA0100F0D10298AD
:1025900006A9081A00F1200A600702D524F4803445
:1025A00000E00127574502DDA7EB0A0000E000200C
:1025B00000EB0A01009005984144401A0590E003A1
:1025C00006D45B462146179A059800F0B3F90544F6
:1025D000002706E001A85A46C05D179990476D1C78
:1025E0007F1C4745F6DBE0030CD55B462146179A76
:1025F000059800F09FF9054404E030205A461799E9
:1026000090476D1C0099481E00900029F5DC08E0F9
:10261000029802995A460078491C029117999047EE
:102620006D1CBAF10001AAF1010AF1DC65E10000BC
:102630000928010030313233343536373839616298
:10264000636465660000000030313233343536375C
:1026500038394142434445460000000000F058F933
:102660000544761C307800287FF4ECAD19B028467C
:10267000BDE8F08F620700D4062709F1070222F0B7
:10268000070CFCE80223E14603F000485FEA080C6F
:1026900002D00FF2702C0DE05FEA045C02D50FF25D
:1026A000682C07E05FEAC47C02D00FF2602C01E0E6
:1026B000AFF2700C4FF0FF3823F00043CDF850C05C
:1026C00065280CD006DC452809D046281DD04728AF
:1026D0003DD13DE0662818D067287ED138E0002142
:1026E000112F01DB112000E0781CCDE9000106A9C3
:1026F0000EA8FFF7EDFCDDE90F010E9A0391002112
:10270000009207F1010A04914DE04FF0004000975C
:10271000CDE9011006A90EA8FFF7DAFCDDE90F02EA
:1027200003920E9B11990022DDF80CA000930492F5
:1027300011B9791C00EB010AB7EB0A0004D4C0F10F
:10274000FF3007F1010A0490AAEB0700019044E072
:10275000012F00DA01270021112F01DD112000E0F7
:102760003846CDE9000106A90EA8FFF7B1FCDDE966
:102770000F010E9A0391002104910092BA4621079D
:102780000CD40399514500DA8A46BAF1010F05DDF0
:10279000009AAAF10101515C302908D0B84202DA4E
:1027A00010F1040F06DA0121CDE9011015E0AAF1BC
:1027B0000101E9E7002805DC049901440491AAEB32
:1027C000000102E0411C514500DD8A460499401A8F
:1027D000401C01904FF000400290200704D4019863
:1027E000504501DBCDF8048000208DF84F000298A1
:1027F0000DF14F07B0F1004F25D02B200E9002981D
:102800004FF0020800280CDA404202902D200E9072
:1028100007E00A210298FDF7A0FD3031029007F889
:10282000011DB8F10001A8F10108F2DC02980028AE
:10283000EFD1791E0E980870307800F0200040F03B
:10284000450007F8020D12A8C01B00F107081498F4
:10285000007800B1012000EB0A01019801EBE07162
:1028600005984144401A401E0590E00306D45B469B
:102870002146179A059800F05DF8054414980078F1
:1028800018B15A46179990476D1CE00324D55B4652
:102890002146179A059800F04DF805441CE004986D
:1028A000002807DBDDE90301884203DD0098405C76
:1028B000179901E0179930205A469047049805F17E
:1028C0000105401C04900198401E019004D12E2067
:1028D0005A46179990476D1CBAF10001AAF1010AF6
:1028E000DDDC05E017F8010B5A46179990476D1C7F
:1028F000B8F10001A8F10108F4DC5B462146179A03
:102900000598ABE62D0000002B0000002000000021
:102910002DE9F041044600251E461746880404D4DC
:1029200005E039462020B0476D1C641EF9D52846C5
:10293000BDE8F0812DE9F041044600251E46904691
:10294000C80301D5302700E02027880404D505E01E
:1029500041463846B0476D1C641EF9D52846BDE88F
:10296000F081000070B504460D46E1B20248FFF761
:102970006FFB204670BD0000004800400EB500BF50
:102980004FF4C060FEF784FD4FF4E130FFF7A0F98B
:102990003BA0FFF77DFB3F4801683FA0FFF778FBB6
:1029A000FEF78EFC41A0FFF773FBFEF747F844A04B
:1029B000FFF76EFBFEF73EF8FEF70EF818B147A0E2
:1029C000FFF766FB02E04CA0FFF762FBFEF79CFC02
:1029D00018B151A0FFF75CFB02E053A0FFF758FBD2
:1029E000FDF782FF55A0FFF753FB20215848FEF763
:1029F00023F940215648FEF71FF93FE0554800787B
:102A0000002823D05448017854A0FFF741FBFFF77A
:102A1000EFF955A0FFF73CFB0020FEF711F98346C4
:102A2000FDF783FC8246FDF785FC06464FF06632D3
:102A3000534BFDF799FB04460022524BFDF706FC71
:102A4000804642460B4650A0FFF722FB52480078D2
:102A5000A0B1002050490870FEF744FE4F48C079ED
:102A60004E4989794D4A5279CDE9002102904B486F
:102A7000C378827801884AA0FFF70AFBBEE700000E
:102A8000496E69745F5541525433204F4B210D0AF2
:102A900000000000400000205379735F636C6F6397
:102AA0006B3A2564487A0D0A00000000496E69748B
:102AB0005F5379735469636B204F4B210D0A0000FB
:102AC0004750494F5F436F6E6669677572617469FD
:102AD0006F6E204F4B210D0A00000000415432342C
:102AE000433634445F454550524F4D20496E69741A
:102AF000204F4B210D0A00004154323443363444F8
:102B00005F454550524F4D20496E697420466169BA
:102B10006C757265210D0A0052544320496E697428
:102B2000204F4B210D0A000052544320496E697416
:102B3000204661696C757265210D0A0048617264F6
:102B400077617265207265616479210D0A00000069
:102B500000080140100000200D0000204C656E3A76
:102B600025640D0A00000000555341525433205291
:102B70005820436F6D706C657465210D0A0000006C
:102B800066660A400000B0404765745F4164633A7E
:102B90002566560D0A0000002000002022000020BB
:102BA0002564C4EA2564D4C22564C8D5A3AC2564D1
:102BB0003A25643A25640D0A00000000000303066C
:102BC00001040602050003051F1C1F1E1F1E1F1FF8
:102BD0001E1F1E1FF42B00080000002058000000DC
:102BE000B02000084C2C00085800002018070000F6
:102BF000C0200008000000000000000000000000ED
:102C00000000000000005300DC0500000000000090
:102C100000000000000000000000000000000000B4
:102C20000000000001020304010203040607080972
:102C30000204060800807000000000000000000090
:0C2C400001020304060708090000000060
:0400000508000131BD
:00000001FF
